:10083200D2B4D2B37590F97F05120860C2B3759035
:10084200A47F05120860C2B4D2B37590B07F0512BE
:0E0852000860C2B37590997F0512086080D2CD
:0A088F00AE071FEE60030080F722A1
:100860007E007C037DE8120800E48F0B8E0AF509F8
:10087000F508780874FF120814EC4D4E4F60030021
:0208800080F006
:010882002253
:0300000002088370
:0C088300787FE4F6D8FD75810B02083286
:10080000EF8DF0A4A8F0CF8CF0A428CE8DF0A42E0C
:02081000FE22C6
:100812007401FF3395E0FEFDFC080808E6CF2FF6D1
:1008220018E6CE3EF618E6CD3DF618E6CC3CF622AA
:00000001FF
